:020000040800F2
:100000005805002005010008E51200087D0C0008D5
:10001000E1120008050A0008C926000800000000D7
:10002000000000000000000000000000AD1A000801
:10003000350A000800000000F9180008BD1C00087F
:100040001F0100081F0100081F0100081F01000810
:100050001F0100081F0100081F0100081F01000800
:100060001F0100081F0100081F0100081F010008F0
:100070001F0100081F0100081F0100081F010008E0
:100080001F0100081F0100081F0100081F010008D0
:100090001F0100081F0100081F0100081F010008C0
:1000A0001F010008611F00081F0100081F01000850
:1000B0001F0100081F0100081F0100081F010008A0
:1000C0001F0100081F0100081F0100081F01000890
:1000D0001F010008FD2300081F0100081F01000880
:1000E0001F0100081F0100081F010008DFF810D0E1
:1000F00000F00AFC00480047A52E0008AFF300807E
:10010000580500200648804706480047FEE7FEE7FE
:10011000FEE7FEE7FEE7FEE7FEE7FEE7FEE7FEE7B7
:10012000C11C0008ED000008F0B480EA0102D40F01
:100130004200B2EB410F02D20246084611464A0085
:1001400042D0C30DDDB2C1F3C752AD1A202D35DA4E
:10015000C1F3160141F4000204B15242C5F1200678
:1001600002FA06F12A411044B3EBD05F23D0C4B1A8
:10017000012DA0EBC35009DCF0BC4FF0004202EAB5
:10018000C352DBB200F5000000F003BB400000F1F9
:10019000807000EBC350A0F1807040EAD17049003C
:1001A00009E0490841EAC071A0EBC35000F5000026
:1001B000400800EBC350F0BC00F0E2BA61420122FB
:1001C00002EB4101001BF6E7F0BC704781F00041F3
:1001D000AAE780F00040A7E780EA010210B502F02C
:1001E0000043400022D04A001FD0010E01EB1261F3
:1001F000C0F35600C2F3560240F4000042F400027D
:10020000A0FB022000047F39140400D0401C50EAF7
:10021000124001D44000491EC2B20C0604EBD010BB
:10022000401C4008802A02D003E0002010BD20F0CE
:100230000100002900DA0020184310BD30B480EA24
:10024000010202F0004530F0004221F0004013D0DE
:1002500090B1C30DD40DC2F31601C0F31600E41A19
:1002600041F4000140F400027D34914201D3641C4A
:1002700000E04900002C02DA30BC002070474FF447
:1002800000000023914201D3891A034340084FEA3A
:100290004101F7D151B1914202D14FF0004105E047
:1002A00002D24FF0010101E06FF0010103EBC450F5
:1002B000284430BC00F064BA2DE9FE4F804681EA44
:1002C0000300C00F0C46009021F0004123F00045D0
:1002D000B8EB0200A94105D24046214690461C4693
:1002E0000B46024623F00040104347D0270DC7F3CA
:1002F0000A00C3F30A510290401A019040286BDAB9
:10030000C3F3130040F4801B0098924620B10023F1
:10031000D2EB030A63EB0B0B01985946C0F1400284
:10032000504600F00CFA06460D4650465946019AD2
:1003300000F014FA10EB08006141002487EA115222
:1003400084EAE7731A4340D0009A62B3019A012A03
:100350004FEA075215DC001B61EB02014FF000422F
:1003600002EA0752CDE90042001C41F580113246F5
:100370002B4600F04BFA03B0BDE8F08F4046214613
:10038000F9E7001B61EB0201001C41F58013001826
:100390005B412018A2F5001747EB030140EAD57036
:1003A000B6196D4111E06D084FEA360645EAC07591
:1003B0004FEA0752001B61EB0201001C41F580115E
:1003C00049084FEA30000019514132462B4603B02C
:1003D000BDE8F04F00F00BBA009801224000002366
:1003E000D0EB020263EBE073009821464FEAE07421
:1003F000B8EB000061EB0401E9E783F000435BE741
:1004000081F0004158E72DE9FE4F81EA030404F032
:10041000004421F0004100944FF0000B23F0004312
:1004200050EA01045ED052EA03045BD0C3F30A54DD
:10043000C1F30A552C44A4F2F3340194A0FB0254F6
:10044000C1F3130141F48011C3F3130343F4801388
:1004500001FB024400FB034E840A970A44EA8154DC
:1004600047EA8357A4FB076802958D0A05FB0785B9
:100470004FEA932C04FB0C542705029D4FEA0658C3
:1004800047EA1637B5EB08056EEB070C870E920EA0
:1004900047EA811742EA8312A7FB0201B6EB0B0180
:1004A00064EB00042B0D43EA0C335E1844EB1C5044
:1004B000DA465146E7FB0201C5F313044FEA0B335A
:1004C00043EA14534FEA0432019C43EA0603A4F1C1
:1004D0000C040294009CCDE900B400F097F903B03D
:1004E000BDE8F08F00200146F9E72DE9F04D81EAE3
:1004F000030404F0004B21F0004514464FF0000ABD
:1005000023F0004150EA050220D054EA01021DD038
:10051000C5F30A570246C5F31303C1F31300C1F331
:100520000A5640F4801543F48013A7EB0608101B0D
:10053000D64608F2FD3873EB050002D308F1010836
:1005400001E092185B41B8F1000F03DA0020014688
:10055000BDE8F08D00204FF48011064684460EE081
:10056000171B73EB050705D3121B63EB050306434B
:100570004CEA010C49084FEA300092185B4150EAFE
:100580000107EDD152EA030012D082EA040083EAA7
:100590000501084305D0101BAB4106D20122002300
:1005A00006E000224FF0004302E06FF0010253101A
:1005B0001AEB06004CEB085110EB0A0041EB0B0163
:1005C000BDE8F04D00F013B9C10F80EAE0700844B7
:1005D000CA079623002100F0DCB80EB5C10F80EAEF
:1005E000E0700844CA07002140F233438DE80E0052
:1005F0000A460B4600F00AF903B000BD00F00042C5
:1006000020F00040C10DC0F3160040F400007F2927
:1006100001DA00207047962903DCC1F19601C84039
:1006200001E096398840002AF4D04042704720F01B
:100630000040C10DC0F3160040F400007F2901DA2C
:1006400000207047962903DCC1F19601C84070472D
:1006500096398840704700F0004230F000400AD0E0
:10066000C10D01F56071C0F3160042EA0151C208E4
:1006700040071143704700200146704701F00043D6
:1006800030B421F0004150EA010206D00A0DA2F573
:100690006072C1F31301002A02DC30BC00207047F5
:1006A000440F44EAC104C100E01830BC00EBC25062
:1006B00000F066B8002801DBC0F10040002901DB32
:1006C000C1F1004181427047002801DBC0F10040C8
:1006D000002901DBC1F10041884270472DE9F05F3C
:1006E0000546002092469B468846064681464024A1
:1006F0001BE0284641464746224600F017F953467C
:100700005A46C01A914110D311461846224600F0AD
:1007100016F82D1A67EB01084F46224601200021EA
:1007200000F00DF817EB00094E41201EA4F1010462
:10073000DFDC484631462A464346BDE8F09F202A82
:1007400004DB203A00FA02F1002070479140C2F128
:10075000200320FA03F3194390407047202A06DB58
:10076000CB17203A41FA02F043EAE07306E041FA7F
:1007700002F3D040C2F1200291400843194670476D
:100780000029A8BF7047401C490008BF20F00100A5
:10079000704710B4B0FA80FC00FA0CF050EA010483
:1007A00004BF10BC704749B1CCF1200421FA04F415
:1007B00011FA0CF118BF012121430843A3EB0C01EE
:1007C000CB1D4FEA00614FEA102042BF002010BC51
:1007D000704700EBC35010440029A4BF10BC704701
:1007E000401C490008BF20F0010010BC704710B544
:1007F000141E73F1000408DA401C41F10001921844
:100800005B411A4301D120F0010010BD2DE9F04DEC
:1008100092469B4611B1B1FA81F202E0B0FA80F241
:1008200020329046FFF78BFF04460F4640EA0A004D
:1008300041EA0B0153465A46084313D0114653EA86
:10084000010019D0C8F14002504600F06FF805468B
:100850000E46504659464246FFF771FF084305D001
:10086000012004E020463946BDE8F08D0020054314
:1008700046EAE0762C4337430A986305E40AA0EB86
:1008800008000022FD0A44EA47540A3002D500203D
:100890000146E9E7010510196941DDE9084500193C
:1008A0006941BDE8F04DA2E770B521F00043034374
:1008B0000CD0C1F30A550024D5EB040564EB040306
:1008C000D617AD1AB34102DB0020014670BD2018D7
:1008D00041EB025170BD000030B5041E71F10004FF
:1008E00004DB4FF00044404264EB0101141E73F13D
:1008F000000405DB1C464FF00043524263EB040347
:100900008B4208BF824230BD064C074D06E0E068CE
:1009100040F0010394E8070098471034AC42F6D346
:10092000FFF7E8FB1836000838360008202A04DBF9
:10093000203A21FA02F00021704721FA02F3D04058
:10094000C2F12002914008431946704710B500F0EB
:1009500039FB00F0B5FD4FF4E13001F097FD00F0F8
:1009600053F800F071FF00F085F800F049FF07A090
:1009700001F0ACFE01F0E6FB09A20121084600F0FF
:10098000AEFE4FF47A7000F057F810BDB3F5CABC54
:10099000BBAFCDEAB3C9203E2E4F0D0A00000000C8
:1009A000416C6C20496E6974206973204F4B2100A3
:1009B0002DE9F04104461048B0F90000FFF704FEAD
:1009C00007460E4841693846FFF706FC05460C49C4
:1009D0002046FFF7FBFB07460848C1683846FFF78B
:1009E000FBFB06462946FFF79FFB0449C861084602
:1009F000C069BDE8F08100001E000020F400002066
:100A00000000A04000BFFEE708B50121042000F06F
:100A100085FF10208DF803003C20ADF80000032076
:100A20008DF802006946024800F02AF808BD00006F
:100A3000000801407047000070B504460C4801F002
:100A400013F9002508E000BF4FF0E020006900F432
:100A500080300028F8D06D1CA542F4D34FF0E02080
:100A6000006920F001004FF0E021086170BD000036
:100A70004019010010B500F0CBFF00F083F910BD64
:100A80002DE9F04102460025002600200023002425
:100A9000002791F803C00CF00F0591F803C00CF08B
:100AA000100CBCF1000F03D091F802C04CEA050510
:100AB00091F800C0BCF1000F31D0146800202BE089
:100AC0004FF0010C0CFA00F3B1F800C00CEA030679
:100AD0009E4220D183004FF00F0C0CFA03F7BC4369
:100AE00005FA03FC4CEA040491F803C0BCF1280F9A
:100AF00006D14FF0010C0CFA00FCC2F814C00AE059
:100B000091F803C0BCF1480F05D14FF0010C0CFA6D
:100B100000FCC2F810C0401C0828D1D31460B1F802
:100B200000C0BCF1FF0F34DD546800202EE000F15E
:100B3000080C4FF0010808FA0CF3B1F800C00CEAF9
:100B400003069E4221D183004FF00F0C0CFA03F7ED
:100B5000BC4305FA03FC4CEA040491F803C0BCF161
:100B6000280F05D100F1080C08FA0CF8C2F814801F
:100B700091F803C0BCF1480F07D100F1080C4FF009
:100B8000010808FA0CF8C2F81080401C0828CED3DF
:100B90005460BDE8F0810000F0B50A46002300244F
:100BA0000021002500F00046B6F1004F02D11D4E95
:100BB000F16901E01B4E7168C0F3034583B200F494
:100BC0004016B6F5401F08D121F07061154E7668C9
:100BD00026F07066134F7E6012E000F48016B6F5C2
:100BE000801F06D1032606FA05F4A14341F0706187
:100BF00006E0460D360103FA06F6B14341F0706196
:100C000022B1460D360103FA06F6314300F00046E4
:100C1000B6F1004F02D1034EF16101E0014E716067
:100C2000F0BD0000000001400246002093680B4028
:100C30000BB1012000E000207047016170470AB14C
:100C4000016100E04161704710B5054801F0F8F915
:100C500004B20020024924310880204610BD000063
:100C60000004004010B54FF0804001F0E9F904B2F3
:100C700000204FF080418884204610BD00BFFEE771
:100C800010B510210248FFF7CFFF0446204610BDE3
:100C9000000C014010B5012000F06AF8012000F0BE
:100CA0005DF8FFF7EDFF0446002000F057F82046FE
:100CB00010BD70B50025012000F05AF800240EE0A8
:100CC000012000F04BF8FFF7DBFF012802D1802064
:100CD00020410543002000F041F8601CC4B2082CFC
:100CE000EEDB284670BD10B50446204600F040F803
:100CF000012000F033F8002000F030F810BD70B58E
:100D0000054600240DE08021214101EA050000F0A4
:100D10002FF8012000F022F8002000F01FF8601CDE
:100D2000C4B2082CEFDB70BD10B5012000F020F834
:100D3000012000F013F8002000F01AF8002000F065
:100D40000DF810BD10B5002000F012F8012000F0E1
:100D500005F8012000F00CF810BD000010B50446A5
:100D6000224608210148FFF76AFF10BD000C014030
:100D700010B50446224610210148FFF760FF10BD60
:100D8000000C014000B587B00121042000F0C6FD31
:100D90000121022000F0B2FD48208DF80300C020A0
:100DA000ADF8000003208DF8020069461A48FFF7ED
:100DB00067FE0020ADF81600ADF812004FF6FF7088
:100DC000ADF814000020ADF8100004A9134801F09C
:100DD000C3FA01A801F09EF90020ADF804000F202D
:100DE000ADF80C0001A90D4801F03EF90420ADF862
:100DF00004000F20ADF80C0001A9084801F034F9F7
:100E0000002302220321054801F0F9F801210348DB
:100E100001F0E9F807B000BD0008014000040040FF
:100E200070B505460C46002124480068FFF742FCD7
:100E30001ED2002208212248FFF701FF01220421CF
:100E40001F48FFF7FCFE002210211D48FFF7F7FEA8
:100E5000012220211A48FFF7F2FE284602F08AF804
:100E600018490880204602F085F8164908310880A4
:100E7000002112480068FFF727FC1ED2012208213A
:100E80000F48FFF7DCFE002204210D48FFF7D7FED4
:100E9000012210210A48FFF7D2FE00222021084833
:100EA000FFF7CDFE284602F065F806490880204687
:100EB00002F060F803490831088070BD3C00002052
:100EC00000080140340800402DE9F05F06460F4657
:100ED00090469946DDE90AAB3B2000F099F80446BC
:100EE0003C2000F095F8054645EA042000B2308029
:100EF0003D2000F08DF804463E2000F089F80546BC
:100F000045EA042000B238803F2000F081F8044612
:100F1000402000F07DF8054645EA042000B2A8F81C
:100F20000000432000F074F80446442000F070F8FC
:100F3000054645EA042000B2A9F80000452000F06B
:100F400067F80446462000F063F8054645EA0420A9
:100F500000B2AAF80000472000F05AF804464820E2
:100F600000F056F8054645EA042000B2ABF8000050
:100F7000412000F04DF80446422000F049F80546B3
:100F800045EA042001B20C980180BDE8F09F000002
:100F900008B50121082000F0C1FC14208DF80300E1
:100FA0001820ADF8000003208DF8020069460448BF
:100FB000FFF766FD18210248FFF73FFE08BD00005D
:100FC000000C014010B50121092000F0A7FC01210F
:100FD0000E48FFF7E1FDFFF7DBFF01216B2000F07A
:100FE00037F800216C2000F033F80921192000F0B7
:100FF0002FF806211A2000F02BF818211B2000F0F2
:1010000027F818211C2000F023F810BD0002300042
:1010100070B504460025FFF787FED020FFF76FFE6E
:10102000FFF738FE2046FFF76AFEFFF733FEFFF7B3
:101030007BFED120FFF763FEFFF72CFEFFF739FEA2
:1010400005460120FFF74FFEFFF77CFE284670BDE6
:1010500070B505460C46FFF767FED020FFF74FFE40
:10106000FFF718FE2846FFF74AFEFFF713FE20465B
:10107000FFF745FEFFF70EFEFFF764FE70BD0000B0
:101080002DE9F04F87B082463848B0F90000384962
:1010900008603848B0F90000374908603748B0F9AF
:1010A0000000374908603748B0F900003649086049
:1010B0003648B0F900003649086036480068FFF746
:1010C000CAFACDE9040132480068FFF786FA0646FD
:1010D0000F462B480068FFF777FA51460190FFF75B
:1010E00075F88346FFF7B7FA32463B46CDE9020171
:1010F00001F0F8FD0446DDE90423FFF784F980469A
:10110000FFF7BCFA2449086019490968234A1268A4
:1011100001FB02F0FFF758FA04462149FFF78EF869
:1011200020490860204801684FF07E50FFF74EF8D4
:101130000646194801683046FFF74EF804461B483A
:10114000016818480068FEF7EFFF06461648016878
:101150003046FFF741F805462146FEF7E5FF134903
:1011600008600846006807B0BDE8F08F1C0000204A
:101170004C0000201E00002050000020160000201F
:101180005400002018000020580000201A00002001
:101190005C0000204800002068000020780000204B
:1011A00000007A44700000207C00002060000020D5
:1011B0002DE9F04F87B082463848B0F90000384931
:1011C00008603848B0F90000374908603748B0F97E
:1011D0000000374908603748B0F900003649086018
:1011E0003648B0F900003649086036480068FFF715
:1011F00032FACDE9040132480068FFF7EEF90646FD
:101200000F462D480068FFF7DFF951460190FEF7C1
:10121000DDFF8346FFF71FFA32463B46CDE9020168
:1012200001F060FD0446DDE90423FFF7ECF8804699
:10123000FFF724FA244908601B490968234A126809
:1012400001FB02F0FFF7C0F904462149FEF7F6FF63
:1012500020490860204801684FF07E50FEF7B6FF35
:101260000646194801683046FEF7B6FF04461B489B
:10127000016818480068FEF757FF064616480168DF
:101280003046FEF7A9FF05462146FEF74DFF1349FC
:1012900008600846006807B0BDE8F08F1C00002019
:1012A0004C0000201E0000205000002016000020EE
:1012B0005400002018000020580000201A000020D0
:1012C0005C000020480000206C0000207800002016
:1012D00000007A44740000207C000020640000209C
:1012E00000BFFEE7704708B54FF4A06000F048F873
:1012F00019208DF8000001208DF8030000208DF8E2
:10130000010001208DF80200684600F001F808BDD8
:1013100070B5002100230F22C47804B3154C246853
:1013200004F4E064C4F5E064210AC1F10403CA4096
:10133000447804FA03F184781440214309010E4CE7
:101340000678A155047804F01F050124AC40057807
:101350006D11AD0005F1E025C5F8004109E0047804
:1013600004F01F050124AC40044D0678761145F8C1
:10137000264070BD0CED00E000E400E080E100E0FC
:1013800002490143024A1160704700000000FA055B
:101390000CED00E070B500240EE00021204600F0C6
:1013A000F0F8002504E0002000F0BDF9681CC5B28B
:1013B000802DF8DB601CC4B2082CEEDB70BD000091
:1013C00008B50121082000F0A9FA14208DF80300C7
:1013D00003208DF802004FF48060ADF800006946EC
:1013E0000A48FFF74DFB4FF40060ADF80000694676
:1013F0000648FFF745FB012291020448FFF71FFC56
:101400000122D1020148FFF71AFC08BD000C01407F
:1014100070B50546002415E08020204100EA050251
:101420004FF400610E48FFF70AFC012291020C48BC
:10143000FFF705FC00224FF480610948FFF7FFFB2E
:10144000601CC4B2082CE7DB012291020448FFF7BC
:10145000F6FB00224FF480610148FFF7F0FB70BDFE
:10146000000C014010B50122D1020A48FFF7E7FB4A
:10147000012291020748FFF7E2FB00224FF40061CE
:101480000448FFF7DCFB00224FF480610148FFF7BE
:10149000D6FB10BD000C014010B500224FF40061D6
:1014A0000648FFF7CCFB012291020448FFF7C7FB77
:1014B0000122D1020148FFF7C2FB10BD000C014020
:1014C00070B5002406E0002500E06D1CB5F57A7FBC
:1014D000FBD3641CB4F57A7FF5D3FFF771FFAE2020
:1014E00000F011F9D52000F00EF9802000F00BF982
:1014F000A82000F008F93F2000F005F9D32000F003
:1015000002F9002000F0FFF8402000F0FCF8A120D4
:1015100000F0F9F8C82000F0F6F8DA2000F0F3F84F
:10152000122000F0F0F8812000F0EDF8CF2000F05C
:10153000EAF8D92000F0E7F8F12000F0E4F8DB2029
:1015400000F0E1F8302000F0DEF8A42000F0DBF835
:10155000A62000F0D8F88D2000F0D5F8142000F077
:10156000D2F8AF2000F0CFF8FFF714FF70BD10B530
:101570000246012000E050430B1EA1F10101FAD107
:1015800010BD70B505460C4645F0B00000F0BBF844
:10159000102141EA141000F0B6F804F00F0000F03A
:1015A000B2F870BD2DE9F04105460E461746721E91
:1015B000D206110E6A1E5206100EFFF7E2FF00243B
:1015C00009E0A7F12001134A02EB0111085D00F0C8
:1015D000AAF8601CC4B2082CF3DB721ED206110EEE
:1015E0006A1E012303EB4202D0B2FFF7CAFF0024B8
:1015F0000BE0A7F12001074A02EB011204F10801F8
:10160000505C00F090F8601CC4B2082CF1DBBDE81F
:10161000F0810000822F000810B513480068FEF723
:10162000EDFF0446042322461946022000F024F868
:101630000E480068FEF7E2FF0446042322460A2112
:10164000022000F019F804230948B0F90020012114
:10165000032000F011F804230648B0F9002001210E
:10166000184600F009F810BD3C00002040000020A2
:1016700094000020960000202DE9F047814688461E
:1016800015461E46002D06DB2B2241464846FFF735
:1016900089FF2F4605E02D2241464846FFF782FF8D
:1016A0006F42002417E0301B411E0A20FFF75FFF46
:1016B000B7FBF0F00A21B0FBF1F201FB120000F1E0
:1016C000300A08EB0400401CC1B252464846FFF7FE
:1016D00069FF601CC4B2B442E5DBBDE8F0872DE9C8
:1016E000F04107460E461546002407E02A5D3019F2
:1016F000C1B23846FFF756FF601CC4B2285D00280F
:10170000F4D1BDE8F08110B50446FFF7ABFE7820B8
:10171000FFF77EFE0020FFF77BFE2046FFF778FEF6
:10172000FFF7BAFE10BD10B50446FFF79BFE782008
:10173000FFF76EFE4020FFF76BFE2046FFF768FEC6
:10174000FFF7AAFE10BD000070B5FFF77DFA40421A
:1017500000B220490880FFF785FA1F4908801F481A
:1017600000681F49086008460068FFF721F9044631
:10177000FEF75DFF1B490880164800881649098856
:10178000084400B2184908800846B0F90000FEF786
:101790001BFF054600F000FA0446FEF748FF134918
:1017A00008801048008809880844114908800D48BD
:1017B00000880E49098808440E4908800C480188B1
:1017C0000C480088FFF72CFB0B4801680BA000F0C9
:1017D0007DFF70BD94000020960000203C0000209A
:1017E000880000208C000020980000208E0000203F
:1017F00092000020900000208000002025640A0054
:1018000010B500200B4908600B48C8600020086133
:1018100048610A490860C860C8680949FEF70EFDBA
:10182000064908610020486106490860C8600861EF
:10183000486110BDF40000200000C8C3140100205E
:10184000000048433401002000B589B00121082080
:1018500000F064F80121042000F050F818208DF801
:1018600007004FF4A070ADF8040003208DF80600C7
:1018700001A91F48FFF704F94FF480711C48FFF7D6
:10188000DCF90020ADF81E00ADF81A0041F61F404B
:10189000ADF81C000020ADF8180006A9154800F0AE
:1018A0005BFD6020ADF808000020ADF810000120BD
:1018B000ADF80A000020ADF80E0002A90D4800F0B6
:1018C0006FFC02A90B4800F0C1FC0821094800F098
:1018D000B3FC0821074800F009FD0121054800F08C
:1018E00073FB0121034800F07EFB09B000BD00003E
:1018F000000C0140000800407047000029B1064A72
:10190000D2690243044BDA6104E0034AD26982439C
:10191000014BDA61704700000010024029B1064A0D
:1019200092690243044B9A6104E0034A926982433C
:10193000014B9A61704700000010024030B5002151
:101940000022002400232D4D6D6805F00C0121B10B
:10195000042905D0082923D105E0294D056022E09E
:10196000274D05601FE0254D6D6805F47012234D6D
:101970006D6805F48034022505EB92421CB9214DB7
:10198000554305600BE01D4D6D6805F400351DB134
:101990001C4D5543056002E0194D5543056002E0BA
:1019A000174D056000BF00BF144D6D6805F0F001D4
:1019B0000909154D6B5C0568DD4045600F4D6D688C
:1019C00005F4E061090A104D6B5C4568DD408560F7
:1019D0000A4D6D6805F46051C90A0B4D6B5C456892
:1019E000DD40C560054D6D6805F44041890B074D2C
:1019F0006B5CC568B5FBF3F5056130BD00100240B6
:101A000000127A0000093D000000002010000020B4
:101A100000B587B001210420FFF780FF01210846AF
:101A2000FFF76CFF48208DF803000320ADF800009D
:101A30008DF8020069461C48FFF722F80020ADF837
:101A40001600ADF812004FF6FF70ADF8140000203C
:101A5000ADF8100004A94FF0804000F07DFC01A813
:101A600000F058FB0020ADF804000F20ADF80C008A
:101A700001A94FF0804000F0F7FA0420ADF804000F
:101A80000F20ADF80C0001A94FF0804000F0ECFAF7
:101A9000002302220321500700F0B1FA0121880738
:101AA00000F0A1FA07B000BD00080140704710B572
:101AB00000F002F810BD00000CB50020019000906D
:101AC0003348006840F480303149086000BF304836
:101AD000006800F4003000900198401C01900098CC
:101AE00018B90198B0F5A06FF1D12948006800F449
:101AF000003010B10120009001E00020009000981B
:101B0000012843D12348006840F0100021490860B3
:101B10000846006820F0030008600846006840F0AE
:101B2000020008601A484068194948600846406841
:101B300048600846406840F4806048600846406855
:101B400020F47C1048600846406840F4E810486083
:101B50000846006840F08070086000BF0C480068CC
:101B600000F000700028F9D00948406820F0030018
:101B7000074948600846406840F00200486000BFDE
:101B80000348406800F00C000828F9D10CBD0000A3
:101B900000100240002002402DE9F14F2848006863
:101BA000FEF759FD0646274A274BFEF72CFC044654
:101BB0000D460098FEF74FFD0646244A244BFEF7DB
:101BC00022FC804622462B46FEF776FB8246FEF735
:101BD00055FD20490860084601681F480068FEF767
:101BE000A3FA1D4908601D491B480068FEF76CFDFB
:101BF00002D21A4818490860194917480068FEF7C8
:101C000059FD02D216481449086016480169124865
:101C10000068FEF7E1FA04461248C1680D48006802
:101C2000FEF7DAFA05462146FEF77EFA0D49C8614D
:101C300008480068024908600A48C069BDE8F88F92
:101C4000C4000020CDCCCCCCCCCCEC3F9A99999957
:101C50009999B93FC0000020C800002000401C46F0
:101C600000401CC61401002030B50146B1F1807F50
:101C700001D3012030BD21F07F40401E4FF0E02213
:101C8000506150170F22002807DA13071D0E094B69
:101C900000F00F04241F1D5503E013071C0E064B14
:101CA0001C5400BF00204FF0E0229061072010611B
:101CB0000020DFE718ED00E000E400E070470000DE
:101CC00010B51348006840F001001149086008464B
:101CD0004068104908400E494860084600680E49AF
:101CE00008400B4908600846006820F4802008601E
:101CF0000846406820F4FE0048604FF41F008860EA
:101D0000FFF7D5FE4FF000600449086010BD0000E9
:101D1000001002400000FFF8FFFFF6FE08ED00E0B3
:101D2000F0B50C46154600220021068C4FF6FE77D2
:101D30003E400684028B018C4FF60C7632407E1CAE
:101D400006EA03162E433243104EB0420ED0104E18
:101D5000B0420BD0B0F1804F08D00E4EB04205D04B
:101D60000D4EB04202D00D4EB04206D14FF6FD7678
:101D7000314044F00106314305E04FF6F57631403D
:101D800044F00106314302830184F0BD002C014080
:101D9000003401400004004000080040000C0040F6
:101DA000F0B50C461546002200210026078C4FF6A0
:101DB000EF7C07EA0C070784028B018C4FF6FF7754
:101DC00007EA041640F6FF473A404FF6FF7707EA66
:101DD00003373A434FF6FF7707EA05273A43114F97
:101DE000B8420ED0104FB8420BD0B0F1804F08D09F
:101DF0000E4FB84205D00E4FB84202D00D4FB84238
:101E000006D14FF6DF77394046F01007394305E039
:101E10004FF65F77394044F010073943028301845D
:101E2000F0BD0000002C01400034014000040040DF
:101E300000080040000C0040F0B50C46154600229A
:101E400000210026078C4FF6FF6C07EA0C07078479
:101E5000828B018C4FF6FF7707EA04264FF60C774A
:101E60003A404FF6FF7707EA03172F433A43114FE3
:101E7000B8420ED0104FB8420BD0B0F1804F08D00E
:101E80000E4FB84205D00E4FB84202D00D4FB842A7
:101E900006D14FF6FF57394046F48077394305E0C5
:101EA0004FF2FF57394044F48077394382830184ED
:101EB000F0BD0000002C014000340140000400404F
:101EC00000080040000C0040F0B50C46154600220A
:101ED00000210026078C4EF6FF7C07EA0C070784DA
:101EE000828B018C4FF6FF7707EA043640F6FF47F6
:101EF0003A404FF6FF7707EA05273A434FF6FF7758
:101F000007EA03373A43114FB8420ED0104FB84298
:101F10000BD0B0F1804F08D00E4FB84205D00E4F15
:101F2000B84202D00D4FB84206D14DF6FF77394086
:101F300046F48057394305E047F6FF57394044F4EB
:101F40008057394382830184F0BD0000002C01409A
:101F5000003401400004004000080040000C004034
:101F60000EB501210E4800F06EF8B8B101210C4801
:101F700000F036F80B480C490C4A0D4BCDE9002116
:101F800002900C4A0C490D48FEF79EFF0C48006871
:101F9000FFF776F80B490860FFF7D6FB0EBD00008F
:101FA000002C014022000020200000201E00002004
:101FB0001C0000201A00002018000020160000203D
:101FC000240000203C00002021B1028842F0800261
:101FD000028004E002884FF67F731A400280704747
:101FE000CA430282704721B1028842F00102028096
:101FF00004E002884FF6FE731A4002807047F0B585
:102000000C4615461E460021002200230189028B42
:10201000038C4FF6F877394021434FF6FC473A409E
:1020200040F201173A434FF6DD773B404FF6FF771A
:1020300007EA06172F433B43018102830384F0BD67
:102040000146888C704730B50246002000230024EA
:10205000158A05EA0103958905EA010413B10CB15B
:10206000012000E0002030BD70B505460C46244834
:1020700085420ED0234885420BD0B5F1804F08D061
:102080002148854205D02148854202D0204885421A
:1020900000D100E000BF208850B92389A288618860
:1020A0002846FFF73DFEE188284600F028F925E0A4
:1020B000208804280AD12389A28861882846FFF74E
:1020C0006FFEE188284600F023F917E020880828F1
:1020D0000AD12389A28861882846FFF7ADFEE188EE
:1020E000284600F022F909E02389A2886188284661
:1020F000FFF7EAFEE188284600F020F970BD0000F5
:10210000002C014000340140000400400008004061
:10211000000C0040002101804180012181800021CC
:10212000C180018170471AB183890B43838102E02A
:1021300083898B438381704701894FF6F872114080
:10214000018170470EB50121C802FFF7E7FB134874
:10215000FFF7F2FF0020ADF80600ADF802003120D5
:10216000ADF8040041F61F40ADF8000000208DF8E6
:1021700008006946094800F0EFF8012211460748B7
:10218000FFF7D1FFFFF7AFF801210448FFF728FF61
:1021900001210248FFF727FF0EBD0000002C01407F
:1021A00070B5002400220023058C4FF6FE763540E2
:1021B0000584028C8388048B4FF68F752C40B51EE6
:1021C0002C400D882C43751E2A400D892A434D88CA
:1021D0002A43144DA8420BD0134DA84208D0134DEA
:1021E000A84205D0124DA84202D0124DA84213D1E8
:1021F0004FF6F7752A404D892A434FF6FB752A4062
:102200008D882A434FF6FF652B404FF6FF552B4034
:102210008D892B43CD892B4383800483CD8885868C
:10222000028470BD002C0140003401400040014098
:1022300000440140004801400A460021018B4FF64E
:10224000F7731940114301837047000070B50024F3
:1022500000220023058C4FF6FF6635400584028C72
:102260008388848B4FF68F752C404FF6FC752C407D
:102270000D882C434FF6FF552A400D894FF6FF7607
:1022800006EA05252A434D8806EA05252A43154D09
:10229000A84202D0144DA8421DD14FF2FF752A402A
:1022A0004D894FF6FF7606EA05252A434FF6FF359E
:1022B0002A408D8806EA05252A434EF6FF752B40F5
:1022C0004DF6FF752B408D8906EA05152B43CD8908
:1022D00006EA05152B4383808483CD888587028495
:1022E00070BD0000002C0140003401400A4600216E
:1022F000818B4FF6F7731940114381837047028B2E
:102300004FF6F3731A400283028B0A43028370472D
:10231000028B4FF2FF331A400283028B4FF6FF739A
:1023200003EA01231A4302837047828B4FF6F3734B
:102330001A408283828B0A4382837047828B4FF2DA
:10234000FF331A408283828B4FF6FF7303EA012327
:102350001A43828370470000002202881D4B984276
:102360000ED01D4B98420BD0B0F1804F08D01B4BC4
:10237000984205D01A4B984202D01A4B984204D189
:102380004FF68F731A404B881A43174B984207D069
:10239000164B984204D04FF6FF431A40CB881A439D
:1023A00002808B8883850B8803850A4B98420BD06B
:1023B000094B984208D00E4B984205D00D4B9842DD
:1023C00002D00D4B984201D10B7A03860123838200
:1023D00070470000002C0140003401400004004020
:1023E00000080040000C00400010004000140040B5
:1023F00000400140004401400048014010B540F257
:1024000025510B4800F0A3F858B1094800F036F9FF
:10241000C4B208A1064800F03AF92146044800F089
:1024200032F940F22551024800F015F810BD0000C5
:1024300000380140596F752053656E64202D3E2091
:102440000000000001F40072B2F5007F00D100BF6F
:10245000CA430280704710B50022002340F66A1478
:10246000A14200D100BF0A1201249440A3B2DC4370
:10247000048010BD21B1828942F40052828104E0BF
:1024800082894DF6FF731A408281704710B586B07D
:10249000044601210420FFF741FA01218803FFF7D8
:1024A0003DFA18208DF807004FF40070ADF80400D5
:1024B00003208DF8060001A91C48FEF7E1FA04206C
:1024C0008DF807000002ADF8040003208DF8060027
:1024D00001A91648FEF7D4FA02940020ADF81400C2
:1024E0000C20ADF812000020ADF81000ADF80E0081
:1024F000ADF80C0002A90E4800F054F84FF4A060AB
:10250000FEF73EFF25208DF8000001208DF8030026
:102510008DF801008DF802006846FEF7F9FE0121F2
:102520000348FFF7A7FF06B010BD000000080140F8
:102530000038014002460020B1F5007F00D100BF05
:1025400013880B400BB1012000E00020704770B5EC
:102550000246002400230025002040F66A16B142FE
:1025600000D100BFC1F3421501F01F03012606FA96
:1025700003F3012D02D19689334006E0022D02D1EA
:10258000168A334001E0968A33400C12012606FA7F
:1025900004F41688344013B10CB1012000E000208F
:1025A00070BD00002DE9F04786B005460E460024B8
:1025B000A24600BFA1460027B08900B100BF2F4648
:1025C0002C8A4CF6FF700440F08804432C82AC89BE
:1025D0004EF6F3100440B0883189084371890843EE
:1025E0000443AC81AC8A4FF6FF400440B0890443F9
:1025F000AC8201A8FFF7A2F91F48874202D1DDF89B
:1026000010A001E0DDF80CA0A88900F4004040B162
:102610000AEBCA0000EB0A1031684900B0FBF1F880
:1026200007E00AEBCA0000EB0A1031688900B0FB32
:10263000F1F86420B8FBF0F004012009642101FBEB
:102640001089A88900F4004040B1322000EBC90095
:10265000B0FBF1F000F00700044308E0322000EB8B
:1026600009106421B0FBF1F000F00F0004432C814D
:1026700006B0BDE8F08700000038014001468888B8
:10268000C0F308007047C1F308028280704770B53C
:1026900006460C46002540213046FFF7D3FE0FE0EA
:1026A000615D3046FFF7EFFF00BF40213046FFF786
:1026B00041FF0028F9D040213046FFF7C3FE6D1CD2
:1026C000605D0028ECD170BD00BFFEE70FB4054B84
:1026D00010B503A9044A029800F094F810BC5DF804
:1026E00014FB0000812E0008CC000020490050EAB5
:1026F000C12018BF04204A0D18BF40F0010040F26D
:10270000FF72B2EB515F08BF40F00200012808BF22
:10271000052070472DE9F0414F1E00EBC70104462C
:10272000D1E9000115461E4637F006020DD02A46B3
:102730003346FDF768FE7F1E04EBC703D3E9002391
:10274000FDF7BAFD37F00602F1D1022F25D0042F94
:1027500013D0062F18BFBDE8F0812A463346FDF797
:1027600052FED4E90A23FDF7A7FD2A463346FDF7BA
:102770004AFED4E90823FDF79FFD2A463346FDF7BC
:1027800042FED4E90623FDF797FD2A463346FDF7BE
:102790003AFED4E90423FDF78FFD2A463346FDF7C0
:1027A00032FED4E90223FDF787FD2A463346FDF7C2
:1027B0002AFED4E90023BDE8F041FDF77DBD0122EA
:1027C000FEF772B8FDF778BD024A00201107FEF748
:1027D0006BB8000001FDFFFF02E008C8121F08C12E
:1027E000002AFAD170477047002001E001C1121F92
:1027F000002AFBD1704700000149086070470000C3
:10280000D00000202DE9FF4F8DB09B460F460446B7
:10281000002606E025280BD05A460F999047641CE5
:10282000761C20780028F5D111B03046BDE8F08F35
:102830000025A8460122984900E0054314F8013F0D
:10284000203B02FA03F00842F7D120782E2817D156
:1028500014F8010F45F004052A280ED06FF02F025E
:102860002078A0F1300109290AD808EB880102EB91
:10287000410100EB0108641CF2E757F8048B641C6B
:1028800020786C280DD004DC4C2812D06A2811D195
:1028900004E074280DD07A280CD10AE045F4001524
:1028A00007E0617845F48015814202D1641C05F58A
:1028B0008015641C2078692844D008DC0028B3D037
:1028C000582867D063280FD0642808D13AE07028D0
:1028D00065D0732812D075285AD078285AD05A4615
:1028E0000F999047761CD5E017F8040B8DF800007F
:1028F00000208DF80100E946012003E057F8049B11
:102900004FF0FF3069074FF0000501D40AE06D1C5D
:1029100045450DDA8542FADB19F805100029F6D194
:1029200006E06D1C8542FCDB19F805100029F8D182
:102930002E4404E019F8010B5A460F9990476D1E7A
:10294000F8D2A7E00A200021CDE90801C5F3025022
:1029500002280CD001CFC117021E71F100020CDA5F
:102960000023D0EB030063EB01012D2208E0FF1DE3
:1029700027F00707F7E80201EEE72A0504D52B2226
:102980008DF8282001223CE0EA073AD02022F7E720
:102990000A2000E010200021CDE9080107E0102006
:1029A000002145F00405CDE908014FF00808C5F302
:1029B0000250022810D001CF00214FF0000A2A0750
:1029C00020D52278702A0DD0DDE908C38CF0100CD8
:1029D0005CEA030C0CD015E0FF1D27F00707F7E8B1
:1029E0000201EAE740228DF828204FF0010A0CE0AE
:1029F00050EA010306D030238DF828308DF82920C5
:102A0000022292462278582A04D024A20DF12009ED
:102A10000B9209E026A2F9E7DDE90823FDF75EFE47
:102A20000B9B9B5C09F8013D50EA0102F4D1ADEB30
:102A3000090020300890680701D44FF00108089978
:102A4000884503DD0898A8EB000000E000208046E0
:102A5000002506E00AA85A46405D0F9990476D1C74
:102A6000761C5545F6DB04E030205A460F99904716
:102A7000761CB8F10001A8F10108F5DC05E019F8B1
:102A8000010B5A460F999047761C0899481E0890EA
:102A90000029F4DC641CC4E609280100303132331B
:102AA000343536373839616263646566000000008A
:102AB0003031323334353637383941424344454674
:102AC000000000002DE9F84F04460D4621F00040BB
:102AD00000917349814211DC7249884201DC06D1C0
:102AE0002CB120462946BDE8F84FFFF768BE6E4876
:102AF000002DCCBF6D496E49BDE8F88F6D4981420C
:102B000011DD6D498142D8BF4FF0FF366DDD2046A3
:102B10002946FFF7EBFD042808BFFFF755FE2046C6
:102B20002946BDE8F88F6549654F25F0004581428B
:102B300033DD6449814219DD002632464FF080437F
:102B400020462946FDF7B8FB80468A4601222046EA
:102B50002946FDF7A9FE00223B46FDF74EFC424602
:102B60005346FDF7C2FC04460D463EE00126002216
:102B7000BA463B4620462946FDF79EFB80460F4657
:102B80000022534620462946FDF737FC42463B4685
:102B9000FDF7ABFC04460D4627E04B4981421BDDA7
:102BA000DFF828A102260022534620462946FDF7D9
:102BB0002AFC00223B46FDF77FFB80460F460022A1
:102BC000534620462946FDF718FC42463B46FDF792
:102BD0008CFC04460D4608E0032622462B460020C6
:102BE0003B49FDF782FC04460D4622462B46104623
:102BF0001946FDF708FC8B46824602460B46FDF758
:102C000002FC07460246334888460B4606217844B4
:102C1000FFF780FD52465B46FDF7F5FB82462E48E6
:102C20008B463A46434605217844FFF773FD3A4602
:102C30004346FDF7E8FB02460B46002E5046594638
:102C40000CDAFDF739FB22462B46FDF7DCFB01B021
:102C500022462B46BDE8F04FFDF7D2BBFDF72CFB1B
:102C600022462B46FDF7CFFB1C4A7A4402EBC603F3
:102C7000D3E90023FDF7C1FB22462B46FDF7BDFB40
:102C8000174A7A4402EBC603D3E90023FDF7B8FBE9
:102C9000009A002AB8BF81F00041BDE8F88F00001B
:102CA000000010440000F07F182D4454FB21F93F30
:102CB000FB21F9BF0000DC3F0000203E0000F33F95
:102CC0000000F03F0000E63F008003400000F83FB6
:102CD0000000F0BFCE0900008C0900002A090000A6
:102CE000F20800002DE9F04D9446CCF1000423F0E9
:102CF00000464CEA0404594F46EAD4749A46884682
:102D000021F00042BC4206D8454240EA050442EAAE
:102D1000D474BC4204D9BDE8F04D6246FFF752BD01
:102D2000AAF14055A5F17F6555EA0C040BD00224A9
:102D300004EAAA744A4DDFF82CE144EAD87452EA56
:102D4000000B04D00CE0BDE8F04DFFF7BBBE002C3B
:102D500014BF012CBDE8F08D022C30D0032C32D0F2
:102D600056EA0C0B0AD0BE4220D1BA4209D126F055
:102D7000804622F080423346114617E000291ADBD4
:102D800025E0DFF8E4B0FB44002C04BFDBE90001E0
:102D9000BDE8F08D012C02BFDBE9000181F00041AC
:102DA000BDE8F08D022C0AD0032C0CD0BA4212D10F
:102DB000B8F1000F0BDA2A482C49BDE8F08D2846FF
:102DC0002B49BDE8F08D28467146BDE8F08D2448BA
:102DD0002849BDE8F08D921B12153C2AC4BF204F34
:102DE000244E10DCBAF1000FBEBF12F13C0F0027D9
:102DF0003E4608DB6246FDF778FB21F00041FFF715
:102E000061FE07460E4694B1012C08BF86F00046CD
:102E10000DD0194A194B022C3846314615D0FDF712
:102E2000ECFA2A46BDE8F04D114BFDF7E6BA002258
:102E3000134638463146FDF74FFD04BF0220FFF729
:102E4000DBFC38463146BDE8F08DFDF7D6FA2A4660
:102E5000BDE8F04D064BFDF7D3BA00000000F07F4F
:102E6000182D4454FB2109C086080000FB21F9BF3E
:102E7000FB210940FB21F93F075C143326A6A13C46
:102E800070B504460D46A1B20548FFF7FCFB00BF34
:102E900080210348FFF74EFB0028F9D0204670BD83
:102EA000003801400EB5FDF751FD7520FEF7B0F872
:102EB000164908700846017815A0FFF707FC15A20F
:102EC00001210846FEF70BFC1FE01748B0F900008F
:102ED0001649B1F90010164AB2F90020CDE90021D7
:102EE00002901448B0F900301348B0F9002013489C
:102EF000B0F9001012A0FFF7E9FB1C480068FEF7CC
:102F000057F91B490860FEF787FBDEE71500002034
:102F100025780A0020202020506974636820202032
:102F2000526F6C6C20000000200000201E0000206A
:102F30001C0000201A0000201800002016000020AD
:102F400041783A25642C2041793A25642C20417A35
:102F50003A25642C2047783A25642C2047793A2575
:102F6000642C20477A3A25640A00000028000020DB
:102F7000400000200146002901DA484200E00846EE
:102F8000704700000000000000000000000000008A
:102F90000000000000F800000000000000333000D6
:102FA000000000100C06100C0600000000000000DD
:102FB000000040C07840C0784000043F04043F0453
:102FC0000400007088FC08300000001820FF211E5B
:102FD0000000F008F000E018000000211C031E2192
:102FE0001E0000F00888700000001E21232419270D
:102FF000211010160E00000000000000000000006C
:103000000000000000E01804020000000007182083
:10301000400000020418E0000000004020180700F3
:103020000000404080F0804040000202010F010299
:103030000200000000F0000000000101011F01017A
:103040000100000000000000000080B070000000DF
:10305000000000000000000000000001010101016B
:1030600001010000000000000000003030000000FE
:1030700000000000000080601804006018060100D5
:10308000000000E010080810E000000F10202010E1
:103090000F00001010F8000000000020203F20204A
:1030A00000000070080808887000003028242221E1
:1030B0003000003008888848300000182020201197
:1030C0000E000000C02010F8000000070424243F78
:1030D000240000F808888808080000192120201121
:1030E0000E0000E0108888180000000F1120201149
:1030F0000E0000380808C83808000000003F000033
:1031000000000070880808887000001C222121221D
:103110001C0000E010080810E0000000312222111D
:103120000F00000000C0C0000000000000303000B0
:10313000000000000080000000000000806000002F
:103140000000000080402010080000010204081068
:103150002000404040404040400004040404040477
:103160000400000810204080000000201008040225
:103170000100007048080808F00000000030360127
:103180000000C030C828E810E000071827242314E6
:103190000B000000C038E0000000203C23020227A2
:1031A000382008F8888888700000203F20202011EF
:1031B0000E00C0300808080838000718202020102A
:1031C000080008F808080810E000203F2020201020
:1031D0000F0008F88888E8081000203F20202320EE
:1031E000180008F88888E8081000203F2000030035
:1031F0000000C03008080838000007182020221EF0
:10320000020008F808000008F808203F2101012109
:103210003F20000808F8080800000020203F202078
:10322000000000000808F8080800C08080807F00C7
:10323000000008F888C028180800203F2001263820
:10324000200008F8080000000000203F2020202077
:10325000300008F8F800F8F80800203F003F003F71
:10326000200008F830C00008F808203F20000718A8
:103270003F00E01008080810E0000F102020201088
:103280000F0008F808080808F000203F210101019C
:103290000000E01008080810E0000F18242438503F
:1032A0004F0008F8888888887000203F2000030CB1
:1032B00030200070880808083800003820212122BA
:1032C0001C00180808F8080818000000203F20001B
:1032D000000008F808000008F808001F202020203F
:1032E0001F000878880000C83808000007380E0161
:1032F0000000F80800F80008F800033C0700073C4D
:103300000300081868808068180820302C03032CFC
:1033100030200838C800C83808000000203F2000CE
:10332000000010080808C83808002038262120208E
:103330001800000000FE020202000000007F404072
:103340004000000C30C00000000000000001063802
:10335000C00000020202FE000000004040407F006A
:10336000000000000402020204000000000000004F
:10337000000000000000000000008080808080804D
:103380008080000202040000000000000000000035
:10339000000000008080808000000019242222228A
:1033A0003F2008F8008080000000003F112020111D
:1033B0000E000000008080800000000E1120202000
:1033C0001100000000808088F800000E11202010FD
:1033D0003F200000808080800000001F22222222E7
:1033E0001300008080F0888888180020203F20206B
:1033F00000000000808080808000006B9494949393
:10340000600008F8008080800000203F210000203C
:103410003F2000809898000000000020203F2020DE
:103420000000000000809898000000C08080807F2D
:10343000000008F8000080808000203F24022D302A
:103440002000000808F8000000000020203F202095
:1034500000008080808080808000203F20003F200E
:10346000003F8080008080800000203F21000020FD
:103470003F200000808080800000001F202020204E
:103480001F00808000808000000080FFA1202011AC
:103490000E000000008080808000000E112020A01F
:1034A000FF80808080008080800020203F212000DD
:1034B00001000000808080808000003324242424C8
:1034C0001900008080E0808000000000001F2020A4
:1034D00000008080000000808000001F202020105D
:1034E0003F20808080000080808000010E30080630
:1034F000010080800080008080800F300C030C3041
:103500000F0000808000808080000020312E0E316E
:103510002000808080000080808080818E7018066E
:10352000010000808080808080000021302C2221DA
:10353000300000000000807C020200000000003F1C
:10354000404000000000FF00000000000000FF00FD
:1035500000000002027C800000000040403F0000AC
:103560000000000601010202040400000000000047
:1035700000000000000000004FBB610567ACDD3FAC
:10358000182D4454FB21E93F9BF681D20B73EF3F8A
:10359000182D4454FB21F93FE2652F227F2B7A3C02
:1035A000075C143326A6813CBDCBF07A8807703CBB
:1035B000075C143326A6913CC4EB98999999C9BF2E
:1035C000711623FEC671BCBF6D9A74AFF2B0B3BF63
:1035D0009AFDDE522DDEADBF2F6C6A2C44B4A2BF23
:1035E0000D5555555555D53FFF8300922449C23F8F
:1035F0006E204CC5CD45B73F513DD0A0660DB13FC3
:10360000EB0D76244B7BA93F11DA22E33AAD903FD4
:103610000000000000000000383600080000002014
:10362000D4000000D82700080C370008D400002080
:1036300084040000E82700080000000001020304E1
:10364000010203040607080902040608000000003E
:10365000000000000000000000000000000000006A
:10366000000000000000000000000000000000005A
:10367000000000000000000000000000000000004A
:10368000E12E654200000000000000000000000084
:10369000000000000000000000000000000000002A
:1036A000000000000000000000000000000000001A
:1036B000000000000AD7233C0000000000000000CA
:1036C00000000000000000000000000000000000FA
:1036D00000000000000000000000F04100000000B9
:1036E00000000000000000000000000000000000DA
:1036F00000000000000000000000000000000000CA
:0C370000000000000000000000000000BD
:04000005080000ED02
:00000001FF
